:020000040800F2
:10000000100700208901000895080008590700081A
:10001000D1070008F1020008571500080000000091
:10002000000000000000000000000000A10D00081A
:10003000ED03000800000000F90B0008790F00082C
:10004000A3010008A3010008A3010008A301000800
:10005000A3010008A3010008A3010008A3010008F0
:10006000A3010008A3010008A3010008A3010008E0
:10007000A3010008A3010008A3010008A3010008D0
:10008000A3010008A3010008A3010008A3010008C0
:10009000A3010008A3010008A3010008A3010008B0
:1000A000A3010008A3010008A3010008A3010008A0
:1000B000A3010008A3010008DD0F0008A301000848
:1000C000A3010008A3010008A3010008A301000880
:1000D000A3010008A3010008A3010008D912000829
:1000E00035040008A3010008A301000800F002F88D
:1000F00000F03AF80AA090E8000C82448344AAF188
:100100000107DA4501D100F02FF8AFF2090EBAE885
:100110000F0013F0010F18BFFB1A43F0010318473B
:100120007C1500009C150000103A24BF78C878C1E7
:10013000FAD8520724BF30C830C144BF04680C60ED
:10014000704700000023002400250026103A28BF35
:1001500078C1FBD8520728BF30C148BF0B60704739
:100160001FB51FBD10B510BD00F071F81146FFF7A7
:10017000F7FF01F0F3F900F08FF803B4FFF7F2FF97
:1001800003BC00F097F80000094880470948004781
:10019000FEE7FEE7FEE7FEE7FEE7FEE7FEE7FEE737
:1001A000FEE7FEE704480549054A064B7047000094
:1001B0007D0F0008ED00000810010020100700204E
:1001C00010030020100300204FF0013C50F8042BD6
:1001D00051F8043B9A4221D1A2EB0C03934313EA5A
:1001E000CC1317D150F8042B51F8043B9A4215D187
:1001F000A2EB0C03934313EACC130BD150F8042B5E
:1002000051F8043B9A4209D1A2EB0C03934313EA41
:10021000CC13DBD04FF00000704700BFD01A01BAFA
:10022000B1FA81F101F0180122FA01F0CB40C1F1DD
:100230002001DBB2C0B2C01A2CFA01F3D11A9143EB
:1002400011EAC311E6D17047704770477047754691
:1002500000F02CF8AE4605006946534620F0070032
:10026000854618B020B5FFF79DFFBDE820404FF050
:1002700000064FF000074FF000084FF0000B21F090
:100280000701AC46ACE8C009ACE8C009ACE8C0095D
:10029000ACE8C0098D46704710B50446AFF3008046
:1002A0002046BDE81040FFF768BF000000487047D7
:1002B000B000002001491820ABBEFEE72600020076
:1002C0007047000070B5054600240BE0074850F861
:1002D00024102846FFF778FF10B9601CC0B270BD2B
:1002E000601CC4B20C2CF1DB0020F8E71C000020DD
:1002F00000BFFEE710B56FF0590000F083FA5A20F6
:1003000000F0A4FA10BD10B55A2000F07BFA6FF08F
:10031000590000F09BFA10BD70B504460D464BE045
:100320002078012848D125A000F0A4FD284600F03F
:10033000A1FD0020207023A000F09CFD2846FFF7BF
:10034000C1FF0B2837D2DFE800F036060A360E1858
:10035000232C363635005A2000F03FF82BE00020E1
:1003600000F03BF827E05A2000F02EF8C82000F0FB
:100370003EF8002000F028F81DE06FF0590000F072
:1003800023F8C82000F033F8002000F01DF812E038
:10039000FFF7B0FFC82000F02AF8002000F01DF899
:1003A00009E0FFF7B0FFC82000F021F8002000F0BE
:1003B00014F800E070BD00BFB2E700004F4B2020F2
:1003C000000000000A00000010B50446204600F0BE
:1003D00019FA204600F03AFA10BD10B5044620463E
:1003E00000F010FA204600F031FA10BD704700B559
:1003F000034603E04FF47A7000F005F8181EA3F1ED
:100400000103F7D100BD00EBC001C9004FF0E022AD
:100410005161002191610521116100BF4FF0E02180
:10042000096901F480310029F8D004214FF0E0225D
:100430001161704710B54FF4004000F033F8012807
:1004400022D11248007838B90121114800F011FE7C
:1004500001200E49087013E00C48007801280FD1E4
:100460000B4800F012FE0B4908700021084800F00C
:1004700000FE0021064800F0DBFE00200349087062
:100480004FF4004000F008F810BD000017000020F5
:100490000008004018000020014908607047000073
:1004A00014040140014600200022074B1B6803EAA8
:1004B0000102054B14331B680B4013B10AB1012034
:1004C00000E00020704700000004014000212349A3
:1004D0008279002A3AD00A46126803689A430B468A
:1004E0001A600A1D126803689A430B1D1A6002798C
:1004F00011440A6803681A430A60184A08321268ED
:1005000003689A43154B08331A601A1D1268036872
:100510009A43124B0C331A604279102A0ED11A1FDB
:10052000126803681A430D4B08331A601A1D1268CB
:1005300003681A43094B0C331A600DE007494279EE
:1005400011440A6803681A430A6005E002791144FD
:100550000A6803689A430A6070470000000401407B
:1005600030B500228B071C0F0F2303FA04F20B4B4C
:100570008C1053F824309343084C8D1044F82530E8
:1005800023468C1053F824308C07240F00FA04F40F
:100590002343024C8D1044F8253030BD0800014043
:1005A0002DE9F0410246002500260020002300240A
:1005B000002791F803C00CF00F0591F803C00CF070
:1005C000100CBCF1000F03D091F802C04CEA0505F5
:1005D00091F800C0BCF1000F31D0146800202BE06E
:1005E0004FF0010C0CFA00F3B1F800C00CEA03065E
:1005F0009E4220D183004FF00F0C0CFA03F7BC434E
:1006000005FA03FC4CEA040491F803C0BCF1280F7E
:1006100006D14FF0010C0CFA00FCC2F814C00AE03D
:1006200091F803C0BCF1480F05D14FF0010C0CFA52
:1006300000FCC2F810C0401C0828D1D31460B1F8E7
:1006400000C0BCF1FF0F34DD546800202EE000F143
:10065000080C4FF0010808FA0CF3B1F800C00CEADE
:1006600003069E4221D183004FF00F0C0CFA03F7D2
:10067000BC4305FA03FC4CEA040491F803C0BCF146
:10068000280F05D100F1080C08FA0CF8C2F8148004
:1006900091F803C0BCF1480F07D100F1080C4FF0EE
:1006A000010808FA0CF8C2F81080401C0828CED3C4
:1006B0005460BDE8F08141617047016170470AB143
:1006C000016100E0416170471FB500F09BFC012112
:1006D000042000F0A3FA28208DF80F004FF400400A
:1006E000ADF80C0003208DF80E0003A91948FFF7A0
:1006F00057FF10208DF80F000001ADF80C0003A982
:100700001448FFF74DFF4FF480711248FFF7D3FFF5
:100710000F210020FFF724FF4FF40040019001203B
:100720008DF80A0000208DF8080010208DF80900CF
:1007300001A8FFF7CBFE28208DF8000001208DF8DE
:1007400003008DF801008DF80200684600F0A4F85F
:100750001FBD00000008014000BFFEE708B50121F1
:10076000042000F05BFA0121082000F057FA042071
:100770008DF803004FF4C050ADF8000003208DF851
:10078000020069460548FFF70BFF4FF4C040ADF883
:10079000000069460248FFF703FF08BD000801405A
:1007A000000C014008B50121102000F037FA10209C
:1007B0008DF803004002ADF8000003208DF8020020
:1007C00069460248FFF7ECFE08BD0000001001403A
:1007D00000BFFEE708B50121042000F01FFA102039
:1007E0008DF80300F020ADF8000003208DF8020022
:1007F00069460348FFF7D4FE00F0AEF908BD0000DB
:100800000008014010B50446002C0DDD10210E48F3
:10081000FFF753FF20210C48FFF74DFFA1B24FF027
:10082000804000F003FD0DE020210748FFF745FF61
:1008300010210548FFF73FFF604281B24FF0804032
:1008400000F0F4FC10BD00000008014010B50446A3
:10085000002C0DDD40210E48FFF72FFF80210C48B2
:10086000FFF729FFA1B24FF0804000F0DDFC0DE062
:1008700080210748FFF721FF40210548FFF71BFFB4
:10088000604281B24FF0804000F0CEFC10BD00000D
:10089000000801407047000070B5002100230F22BE
:1008A000C47804B3154C246804F4E064C4F5E0642F
:1008B000210AC1F10403CA40447804FA03F18478A0
:1008C0001440214309010E4C0678A155047804F028
:1008D0001F050124AC4005786D11AD0005F1E02540
:1008E000C5F8004109E0047804F01F050124AC407C
:1008F000044D0678761145F8264070BD0CED00E0F9
:1009000000E400E080E100E002490143024A116096
:10091000704700000000FA050CED00E070B50024FF
:100920000EE00021204600F0E6F8002504E000205B
:1009300000F002F9681CC5B2802DF8DB601CC4B25F
:10094000082CEEDB70BD000008B50121082000F086
:1009500065F914208DF8030003208DF802004FF490
:100960008070ADF8000069460A48FFF719FE4FF4A1
:100970000070ADF8000069460648FFF711FE01223D
:1009800011020448FFF79BFE012251020148FFF7C4
:1009900096FE08BD000C014070B50546002415E028
:1009A0008020204100EA05024FF400710E48FFF755
:1009B00086FE012211020C48FFF781FE00224FF44F
:1009C00080710948FFF77BFE601CC4B2082CE7DB8E
:1009D000012211020448FFF772FE00224FF48071D9
:1009E0000148FFF76CFE70BD000C014010B50122FC
:1009F00051020A48FFF763FE012211020748FFF780
:100A00005EFE00224FF400710448FFF758FE0022FA
:100A10004FF480710148FFF752FE10BD000C0140F9
:100A200010B500224FF400710648FFF748FE01227E
:100A300011020448FFF743FE012251020148FFF76B
:100A40003EFE10BD000C014070B5002406E00025FC
:100A500000E06D1CB5F57A7FFBD3641CB4F57A7F9A
:100A6000F5D3FFF771FFAE2000F056F8D52000F067
:100A700053F8802000F050F8A82000F04DF83F20F7
:100A800000F04AF8D32000F047F8002000F044F8C6
:100A9000402000F041F8A12000F03EF8C82000F00E
:100AA0003BF8DA2000F038F8122000F035F8812009
:100AB00000F032F8CF2000F02FF8D92000F02CF809
:100AC000F12000F029F8DB2000F026F8302000F0BB
:100AD00023F8A42000F020F8A62000F01DF88D20B7
:100AE00000F01AF8142000F017F8AF2000F014F806
:100AF000FFF714FF70BD70B505460C4645F0B00019
:100B000000F00AF8102141EA141000F005F804F092
:100B10000F0000F001F870BD10B50446FFF766FF46
:100B20007820FFF739FF0020FFF736FF2046FFF758
:100B300033FFFFF775FF10BD10B50446FFF756FFF2
:100B40007820FFF729FF4020FFF726FF2046FFF718
:100B500023FFFFF765FF10BD00B589B001210846EE
:100B600000F04CF80121042000F058F818208DF80E
:100B700023000620ADF8200003208DF8220008A9EC
:100B80001C48FFF70DFD4FF0804000F09BFA00205D
:100B9000ADF81A00ADF816006320ADF8180041F664
:100BA0001F40ADF8140000208DF81C0005A94FF07F
:100BB000804000F03FFB01A800F02CFB6020ADF866
:100BC00004000020ADF80C000120ADF80600002064
:100BD000ADF80A0001A94FF0804000F079FA01A9B0
:100BE0004FF0804000F0C6FA0121880700F041FA7A
:100BF00009B000BD000801407047000029B1064A55
:100C0000D2690243044BDA6104E0034AD2698243A9
:100C1000014BDA61704700000010024029B1064A1A
:100C200092690243044B9A6104E0034A9269824349
:100C3000014B9A61704700000010024030B500215E
:100C40000022002400232D4D6D6805F00C0121B118
:100C5000042905D0082923D105E0294D056022E0AB
:100C6000274D05601FE0254D6D6805F47012234D7A
:100C70006D6805F48034022505EB92421CB9214DC4
:100C8000554305600BE01D4D6D6805F400351DB141
:100C90001C4D5543056002E0194D5543056002E0C7
:100CA000174D056000BF00BF144D6D6805F0F001E1
:100CB0000909154D6B5C0568DD4045600F4D6D6899
:100CC00005F4E061090A104D6B5C4568DD40856004
:100CD0000A4D6D6805F46051C90A0B4D6B5C45689F
:100CE000DD40C560054D6D6805F44041890B074D39
:100CF0006B5CC568B5FBF3F5056130BD00100240C3
:100D000000127A0000093D000000002010000020C1
:100D100000B589B001210220FFF770FF01210820F2
:100D2000FFF77CFF18208DF823000120ADF820008C
:100D300003208DF8220008A91748FFF731FC002096
:100D4000ADF81A00ADF81600C720ADF8180041F64E
:100D50001F40ADF8140000208DF81C0005A90F48B5
:100D600000F068FA01A800F055FA6020ADF8040020
:100D70000020ADF80C000120ADF806000020ADF811
:100D80000A0001A9054800F0F5F90121034800F027
:100D900070F909B000BD0000000C014000040040E3
:100DA0007047000000B587B001218804FFF726FFD7
:100DB00001210820FFF732FF18208DF81B004FF4A7
:100DC0008060ADF8180003208DF81A0006A91F48AE
:100DD000FFF7E6FB48208DF81B004FF40060ADF8EC
:100DE000180006A91948FFF7DBFB4FF416500290D4
:100DF0000020ADF814000C20ADF812000020ADF872
:100E00001000ADF80E00ADF80C0002A9104800F07B
:100E10002DFB012240F225510D4800F001FB4FF45B
:100E2000A060FFF771FD27208DF8040001208DF8E8
:100E300007008DF805008DF8060001A8FFF72CFDCE
:100E40000121034800F0A9FA07B000BD000C0140E1
:100E50000048004010B504462146054800F077FBE5
:100E600000BF8021024800F0A4FA0028F9D010BD8C
:100E70000048004070B50446002504E0605DFFF7BF
:100E8000E9FF681C85B2605D0028F7D170BD10B520
:100E900000F002F810BD00000CB500200190009099
:100EA0003348006840F480303149086000BF304862
:100EB000006800F4003000900198401C01900098F8
:100EC00018B90198B0F5A06FF1D12948006800F475
:100ED000003010B10120009001E000200090009847
:100EE000012843D12348006840F0100021490860E0
:100EF0000846006820F0030008600846006840F0DB
:100F0000020008601A48406819494860084640686D
:100F100048600846406840F4806048600846406881
:100F200020F47C1048600846406840F4E8104860AF
:100F30000846006840F08070086000BF0C480068F8
:100F400000F000700028F9D00948406820F0030044
:100F5000074948600846406840F00200486000BF0A
:100F60000348406800F00C000828F9D10CBD0000CF
:100F700000100240002002407047000010B51348E6
:100F8000006840F0010011490860084640681049B7
:100F900008400E494860084600680E4908400B4961
:100FA00008600846006820F4802008600846406811
:100FB00020F4FE0048604FF41F008860FFF767FFD1
:100FC0004FF000600449086010BD000000100240AE
:100FD0000000FFF8FFFFF6FE08ED00E010B501216C
:100FE000064800F055F8012806D100200449087091
:100FF0000121024800F03AF810BD0000000800404E
:10100000170000201FB501210420FFF7F7FD002085
:10101000ADF80A00ADF8060040F29320ADF80800E4
:1010200041F61F40ADF8040000208DF80C0001A926
:101030000D4800F0FFF8012211460B4800F039F886
:101040001E208DF8000001208DF8030002208DF88D
:1010500001008DF802006846FFF71EFC00210248DF
:1010600000F007F81FBD000000080040CA430282DC
:10107000704721B1028842F00102028004E0028838
:101080004FF6FE731A40028070470146888C704705
:1010900030B50246002000230024158A05EA01032A
:1010A000958905EA010413B10CB1012000E000208C
:1010B00030BD1AB183890B43838102E083898B435E
:1010C0008381704701894FF6F872114001817047A2
:1010D00070B5002400220023058C4FF6EF763540D2
:1010E0000584028C8388048B48F6FF752C404FF6EC
:1010F000FF452C400D884FF6FF7606EA05252C4368
:101100004FF6DF752A400D8906EA05152A434D88FA
:1011100006EA05152A43154DA84202D0144DA842EF
:101120001DD14FF67F752A404D894FF6FF7606EAAE
:1011300005152A434FF6BF752A408D8806EA051526
:101140002A434FF6FF352B404FF2FF752B408D8918
:1011500006EA85052B43CD8906EA85052B43838066
:101160000483CD880587028470BD0000002C0140F7
:101170000034014070B5002400220023058C4FF696
:10118000FF6635400584028C8388848B4FF68F750B
:101190002C404FF6FC752C400D882C434FF6FF5524
:1011A0002A400D894FF6FF7606EA05252A434D8829
:1011B00006EA05252A43154DA84202D0144DA8423F
:1011C0001DD14FF2FF752A404D894FF6FF7606EA92
:1011D00005252A434FF6FF352A408D8806EA052566
:1011E0002A434EF6FF752B404DF6FF752B408D8937
:1011F00006EA05152B43CD8906EA05152B438380A6
:101200008483CD888587028470BD0000002C014056
:10121000003401400021018041808180C180018132
:1012200041818181C1817047018770478187704703
:1012300081847047002202881D4B98420ED01D4BBE
:1012400098420BD0B0F1804F08D01B4B984205D08C
:101250001A4B984202D01A4B984204D14FF68F7322
:101260001A404B881A43174B984207D0164B9842A6
:1012700004D04FF6FF431A40CB881A4302808B8874
:1012800083850B8803850A4B98420BD0094B984203
:1012900008D00E4B984205D00D4B984202D00D4B12
:1012A000984201D10B7A03860123838270470000A4
:1012B000002C0140003401400004004000080040C0
:1012C000000C0040001000400014004000400140AD
:1012D000004401400048014010B540F22551224829
:1012E00000F074F801283DD11F4800F02BF90446A6
:1012F0001E48007858B9402C2ED11D48007858BBA4
:1013000001201A49087000201A49087024E0174883
:10131000007801280FD10D2C03D102201349087049
:101320001AE01549134A12788C5412480078401C70
:101330001049087010E00D48007802280CD10A2CE2
:101340000AD100200949087000210B48094A127887
:10135000815401200649087040F22551024800F0EE
:101360000DF800BF10BD000000480040150000202F
:1013700014000020160000204C00002010B50022B0
:10138000002340F66A14A14200D100BF0A120124D2
:101390009440A3B2DC43048010BD21B1828942F4A1
:1013A0000052828104E082894DF6FF731A408281E7
:1013B000704702460020B1F5007F00D100BF1388BE
:1013C0000B400BB1012000E00020704770B50246D1
:1013D000002400230025002040F66A16B14200D107
:1013E00000BFC1F3421501F01F03012606FA03F303
:1013F000012D02D19689334006E0022D02D1168AD2
:10140000334001E0968A33400C12012606FA04F4B8
:101410001688344013B10CB1012000E0002070BDEB
:10142000F0B50346002400260025002040F66A1788
:10143000B94200D100BF1846C1F3421401F01F06A3
:10144000012707FA06F5012C01D10C3004E0022C2B
:1014500001D1103000E014301AB107682F43076043
:1014600002E00768AF430760F0BD00002DE9F047D8
:1014700086B005460E460024A24600BFA1460027BE
:10148000B08900B100BF2F462C8A4CF6FF70044093
:10149000F08804432C82AC894EF6F3100440B088E7
:1014A00031890843718908430443AC81AC8A4FF603
:1014B000FF400440B0890443AC8201A8FFF7BEFBA3
:1014C0001F48874202D1DDF810A001E0DDF80CA032
:1014D000A88900F4004040B10AEBCA0000EB0A10F2
:1014E00031684900B0FBF1F807E00AEBCA0000EBF5
:1014F0000A1031688900B0FBF1F86420B8FBF0F005
:1015000004012009642101FB1089A88900F400402E
:1015100040B1322000EBC900B0FBF1F000F0070051
:10152000044308E0322000EB09106421B0FBF1F025
:1015300000F00F0004432C8106B0BDE8F0870000E6
:101540000038014001468888C0F308007047C1F3A5
:1015500008028280704700BFFEE700004FF4A060E1
:10156000FFF7D2F9FFF770FAFFF71CF9FFF732F92E
:10157000FFF718FCFFF7F2F8FFF7A6F8FFF7C8FB34
:1015800021E01148007801281DD110A0FFF772FC5E
:101590001048FFF76FFC00200B4908700EA0FFF702
:1015A00069FC0C48FEF78EFE032804D0082807D0FB
:1015B000092807D105E007490348FEF7ADFE01E021
:1015C00000E000BF00BFDCE7140000204F4B2020EC
:1015D000000000004C0000200A0000004361725F20
:1015E0004175746F41766F69640000004361725FFA
:1015F000476F4261636B7761726400004361725FA1
:10160000476F466F72776172640000004361725FDA
:101610004D616E75616C4D6F646500004361725F72
:101620004175746F57617966696E64696E67000011
:101630004361725F53746F70000000004361725F1A
:1016400053746172747570004361725F5475726E89
:101650004C656674000000004361725F5475726EE1
:1016600052696768740000004175746F41766F6954
:10167000645F4578697400004D616E75616C4D6FF3
:1016800064655F45786974004175746F5761796668
:10169000696E64696E675F4578697400BC160008FE
:1016A000000000204C000000280100080817000876
:1016B0004C000020C40600004401000800000000A7
:1016C00001020304010203040607080902040608D4
:1016D00000000000000000003C1600083016000862
:1016E0000C160008FC150008EC1500084816000848
:1016F00058160008DC1500081C16000878160008AB
:081700006816000888160008B5
:04000005080000ED02
:00000001FF
