:020000040800F2
:100000001007002089010008D90A00089D0900088E
:10001000150A0008F10200087B1800080000000023
:10002000000000000000000000000000C5100008F3
:10003000BB05000800000000090F00089D12000821
:10004000A3010008A3010008A3010008A301000800
:10005000A3010008A3010008A3010008A3010008F0
:10006000A3010008A3010008A3010008A3010008E0
:10007000A3010008A3010008A3010008A3010008D0
:10008000A3010008A3010008A3010008A3010008C0
:10009000A3010008A3010008A3010008A3010008B0
:1000A000A3010008A3010008A3010008A3010008A0
:1000B000A3010008A301000801130008A301000820
:1000C000A3010008A3010008A3010008A301000880
:1000D000A3010008A3010008A3010008FD15000802
:1000E00005060008A3010008A301000800F002F8BB
:1000F00000F03AF80AA090E8000C82448344AAF188
:100100000107DA4501D100F02FF8AFF2090EBAE885
:100110000F0013F0010F18BFFB1A43F0010318473B
:10012000081F0000281F0000103A24BF78C878C1BB
:10013000FAD8520724BF30C830C144BF04680C60ED
:10014000704700000023002400250026103A28BF35
:1001500078C1FBD8520728BF30C148BF0B60704739
:100160001FB51FBD10B510BD00F071F81146FFF7A7
:10017000F7FF01F085FB00F08FF803B4FFF7F2FF03
:1001800003BC00F097F80000094880470948004781
:10019000FEE7FEE7FEE7FEE7FEE7FEE7FEE7FEE737
:1001A000FEE7FEE704480549054A064B7047000094
:1001B000A1120008ED000008100100201007002027
:1001C00010030020100300204FF0013C50F8042BD6
:1001D00051F8043B9A4221D1A2EB0C03934313EA5A
:1001E000CC1317D150F8042B51F8043B9A4215D187
:1001F000A2EB0C03934313EACC130BD150F8042B5E
:1002000051F8043B9A4209D1A2EB0C03934313EA41
:10021000CC13DBD04FF00000704700BFD01A01BAFA
:10022000B1FA81F101F0180122FA01F0CB40C1F1DD
:100230002001DBB2C0B2C01A2CFA01F3D11A9143EB
:1002400011EAC311E6D17047704770477047754691
:1002500000F02CF8AE4605006946534620F0070032
:10026000854618B020B5FFF79DFFBDE820404FF050
:1002700000064FF000074FF000084FF0000B21F090
:100280000701AC46ACE8C009ACE8C009ACE8C0095D
:10029000ACE8C0098D46704710B50446AFF3008046
:1002A0002046BDE81040FFF768BF000000487047D7
:1002B000B000002001491820ABBEFEE72600020076
:1002C0007047000070B5054600240BE0074850F861
:1002D00024102846FFF778FF10B9601CC0B270BD2B
:1002E000601CC4B20C2CF1DB0020F8E71C000020DD
:1002F00000BFFEE770B505460C460F2000F0D8FEA3
:100300003C2000F051F95EE000F034F9012847D1BB
:10031000002000F049F94FF4FA7000F04FF919206D
:1003200000F0C6FE00F026F9012827D10F2000F0CA
:10033000BFFE4FF4FA7000F041F9052000F0B8FE5E
:1003400000F018F9012807D14FF4FA7000F036F9DF
:100350000F2000F0ADFE29E04FF4FA7000F02EF906
:100360000F2000F0A5FE3C2000F08BF84FF47A70CF
:1003700000F024F93C2000F017F917E04FF4FA7070
:1003800000F01CF90F2000F093FE3C2000F070F804
:100390004FF47A7000F012F93C2000F005F905E006
:1003A0003C2000F001F90F2000F082FE2146284693
:1003B00000F0C8F82046FFF785FF0B2803D1002086
:1003C00000F0F2F870BD9FE72DE9F04780460D463A
:1003D00000260024002745E04FF48051224800F019
:1003E00052FA06464FF40051204800F04CFA0746F6
:1003F0004FF400611C4800F046FA81464FF48041FA
:100400001A4800F040FA09EA000414B13C2000F058
:10041000CBF81EB114B93C2000F02AF81FB114B972
:100420003C2000F02EF84FF400610F4800F02BFA4A
:1004300050B94FF480410D4800F025FA20B91EB99B
:1004400017B9002000F0B0F82946404600F07AF8CD
:100450002846FFF737FF0C2804D1002000F0A4F84D
:10046000BDE8F087B8E7000000080140000C01403B
:1004700010B50446604200F0E7FA204600F008FBA1
:1004800010BD10B50446204600F0DEFA604200F0D0
:10049000FFFA10BD70B504460D464CE020780128E7
:1004A00049D125A000F078FE284600F075FE002016
:1004B000207023A000F070FE2846FFF703FF0B28F2
:1004C00038D2DFE800F037060A370E18222C37370B
:1004D00036005A2000F068F82CE0002000F064F8A4
:1004E00028E05A2000F060F8C82000F067F80020EB
:1004F00000F05AF81EE05A2000F04DF8C82000F035
:100500005DF8002000F047F814E05A20FFF7B0FF34
:10051000C82000F053F8002000F046F80AE05A2006
:10052000FFF7AFFFC82000F049F8002000F03CF8CA
:1005300000E070BD00BFB1E74F4B2020000000007D
:100540000A00000070B504460D46207801280AD143
:1005500005A000F021FE284600F01EFE00202070BD
:1005600003A000F019FE70BD4F4B202000000000DA
:100570000A00000010B5022000F097F90446062397
:1005800022460821012000F02DFC502C01DC012026
:1005900010BD0020FCE710B50446604200F054FA9C
:1005A000604200F075FA10BD10B50446204600F018
:1005B0004BFA204600F06CFA10BD704700B50346B8
:1005C00003E04FF47A7000F005F8181EA3F1010360
:1005D000F7D100BD00EBC001C9004FF0E02251612E
:1005E000002191610521116100BF4FF0E0210969EF
:1005F00001F480310029F8D004214FF0E02211618C
:100600007047000010B54FF4004000F033F80128A7
:1006100022D11248007838B90121114800F0BBFE00
:1006200001200E49087013E00C48007801280FD112
:100630000B4800F0BCFE0B4908700021084800F090
:10064000AAFE0021064800F085FF0020034908703B
:100650004FF4004000F008F810BD00001700002023
:1006600000080040180000200149086070470000A1
:1006700014040140014600200022074B1B6803EAD6
:100680000102054B14331B680B4013B10AB1012062
:1006900000E00020704700000004014000212349D1
:1006A0008279002A3AD00A46126803689A430B46B8
:1006B0001A600A1D126803689A430B1D1A600279BA
:1006C00011440A6803681A430A60184A083212681B
:1006D00003689A43154B08331A601A1D12680368A1
:1006E0009A43124B0C331A604279102A0ED11A1F0A
:1006F000126803681A430D4B08331A601A1D1268FA
:1007000003681A43094B0C331A600DE0074942791C
:1007100011440A6803681A430A6005E0027911442B
:100720000A6803689A430A607047000000040140A9
:1007300030B500228B071C0F0F2303FA04F20B4B7A
:100740008C1053F824309343084C8D1044F8253016
:1007500023468C1053F824308C07240F00FA04F43D
:100760002343024C8D1044F8253030BD0800014071
:100770002DE9F04102460025002600200023002438
:10078000002791F803C00CF00F0591F803C00CF09E
:10079000100CBCF1000F03D091F802C04CEA050523
:1007A00091F800C0BCF1000F31D0146800202BE09C
:1007B0004FF0010C0CFA00F3B1F800C00CEA03068C
:1007C0009E4220D183004FF00F0C0CFA03F7BC437C
:1007D00005FA03FC4CEA040491F803C0BCF1280FAD
:1007E00006D14FF0010C0CFA00FCC2F814C00AE06C
:1007F00091F803C0BCF1480F05D14FF0010C0CFA81
:1008000000FCC2F810C0401C0828D1D31460B1F815
:1008100000C0BCF1FF0F34DD546800202EE000F171
:10082000080C4FF0010808FA0CF3B1F800C00CEA0C
:1008300003069E4221D183004FF00F0C0CFA03F700
:10084000BC4305FA03FC4CEA040491F803C0BCF174
:10085000280F05D100F1080C08FA0CF8C2F8148032
:1008600091F803C0BCF1480F07D100F1080C4FF01C
:10087000010808FA0CF8C2F81080401C0828CED3F2
:100880005460BDE8F0810246002093680B400BB134
:10089000012000E00020704741617047016170470E
:1008A0000AB1016100E04161704770B5044600255E
:1008B00000260AE000F060F83C20FFF77FFE00F021
:1008C0000BF8284485B2701CC6B2A642F2DB95FB39
:1008D000F4F080B270BD00000248007800EB001018
:1008E00070470000180000201FB500F01DFD012119
:1008F000042000F01BFB28208DF80F004FF400406F
:10090000ADF80C0003208DF80E0003A91948FFF77D
:100910002FFF10208DF80F000001ADF80C0003A987
:100920001448FFF725FF4FF480711248FFF7B4FF1A
:100930000F210020FFF7FCFE4FF400400190012042
:100940008DF80A0000208DF8080010208DF80900AD
:1009500001A8FFF7A3FE28208DF8000001208DF8E4
:1009600003008DF801008DF80200684600F0B6F82B
:100970001FBD00000008014010B54FF4807106480B
:10098000FFF78CFF1420FFF725FE4FF4807102481B
:10099000FFF782FF10BD00000008014000BFFEE726
:1009A00008B50121042000F0C1FA0121082000F05F
:1009B000BDFA04208DF803004FF4C050ADF80000DC
:1009C00003208DF8020069460548FFF7D1FE4FF479
:1009D000C040ADF8000069460248FFF7C9FE08BDF7
:1009E00000080140000C014008B50121102000F072
:1009F0009DFA10208DF803004002ADF8000003209E
:100A00008DF8020069460248FFF7B2FE08BD0000FB
:100A10000010014000BFFEE708B50121042000F0EE
:100A200085FA10208DF80300F020ADF800000320B7
:100A30008DF8020069460348FFF79AFE00F014FAA9
:100A400008BD00000008014010B50446002C0DDD73
:100A500010210E48FFF722FF20210C48FFF71CFF52
:100A6000A1B24FF0804000F073FD0DE02021074857
:100A7000FFF714FF10210548FFF70EFF604281B217
:100A80004FF0804000F064FD10BD00000008014000
:100A900010B50446002C0DDD40210E48FFF7FEFE88
:100AA00080210C48FFF7F8FEA1B24FF0804000F023
:100AB0004DFD0DE080210748FFF7F0FE402105487D
:100AC000FFF7EAFE604281B24FF0804000F03EFD49
:100AD00010BD0000000801407047000070B5002103
:100AE00000230F22C47804B3154C246804F4E06496
:100AF000C4F5E064210AC1F10403CA40447804FA51
:100B000003F184781440214309010E4C0678A15565
:100B1000047804F01F050124AC4005786D11AD0088
:100B200005F1E025C5F8004109E0047804F01F054F
:100B30000124AC40044D0678761145F8264070BD7E
:100B40000CED00E000E400E080E100E00249014338
:100B5000024A1160704700000000FA050CED00E049
:100B600070B500240EE00021204600F0F0F80025CA
:100B700004E0002000F068F9681CC5B2802DF8DBA5
:100B8000601CC4B2082CEEDB70BD000008B501216A
:100B9000082000F0CBF914208DF8030003208DF815
:100BA00002004FF48070ADF8000069460A48FFF774
:100BB000DFFD4FF40070ADF8000069460648FFF70E
:100BC000D7FD012211020448FFF76AFE01225102FB
:100BD0000148FFF765FE08BD000C014070B50546F1
:100BE000002415E08020204100EA05024FF4007146
:100BF0000E48FFF755FE012211020C48FFF750FE88
:100C000000224FF480710948FFF74AFE601CC4B20D
:100C1000082CE7DB012211020448FFF741FE002205
:100C20004FF480710148FFF73BFE70BD000C01409E
:100C300010B5012251020A48FFF732FE01221102CB
:100C40000748FFF72DFE00224FF400710448FFF71C
:100C500027FE00224FF480710148FFF721FE10BDEE
:100C6000000C014010B500224FF400710648FFF758
:100C700017FE012211020448FFF712FE0122510261
:100C80000148FFF70DFE10BD000C014070B50024B7
:100C900006E0002500E06D1CB5F57A7FFBD3641CEF
:100CA000B4F57A7FF5D3FFF771FFAE2000F0BCF802
:100CB000D52000F0B9F8802000F0B6F8A82000F0A8
:100CC000B3F83F2000F0B0F8D32000F0ADF80020DA
:100CD00000F0AAF8402000F0A7F8A12000F0A4F846
:100CE000C82000F0A1F8DA2000F09EF8122000F0F1
:100CF0009BF8812000F098F8CF2000F095F8D920DB
:100D000000F092F8F12000F08FF8DB2000F08CF872
:100D1000302000F089F8A42000F086F8A62000F02A
:100D200083F88D2000F080F8142000F07DF8AF20CB
:100D300000F07AF8FFF714FF70BD10B502460120ED
:100D400000E050430B1EA1F10101FAD110BD70B5B6
:100D500005460C4645F0B00000F066F8102141EA67
:100D6000141000F061F804F00F0000F05DF870BDA1
:100D70002DE9F04105460E461746721ED206110EA9
:100D80006A1E5206100EFFF7E2FF002409E0A7F1E9
:100D90002001134A02EB0111085D00F055F8601CB8
:100DA000C4B2082CF3DB721ED206110E6A1E012398
:100DB00003EB4202D0B2FFF7CAFF00240BE0A7F119
:100DC0002001074A02EB011204F10801505C00F017
:100DD0003BF8601CC4B2082CF1DBBDE8F0810000D8
:100DE000781900082DE9F04780460E4617461D4643
:100DF000002415E0281B411E0A20FFF79EFFB7FBC9
:100E0000F0F00A21B0FBF1F201FB120000F1300911
:100E10003019C1B24A464046FFF7AAFF601CC4B26F
:100E2000AC42E7DBBDE8F08710B50446FFF700FFF2
:100E30007820FFF7D3FE0020FFF7D0FE2046FFF713
:100E4000CDFEFFF70FFF10BD10B50446FFF7F0FE13
:100E50007820FFF7C3FE4020FFF7C0FE2046FFF7D3
:100E6000BDFEFFF7FFFE10BD00B589B001210846A9
:100E700000F04CF80121042000F058F818208DF8FB
:100E800023000620ADF8200003208DF8220008A9D9
:100E90001C48FFF76DFC4FF0804000F0A5FA0020E1
:100EA000ADF81A00ADF816006320ADF8180041F651
:100EB0001F40ADF8140000208DF81C0005A94FF06C
:100EC000804000F049FB01A800F036FB6020ADF83F
:100ED00004000020ADF80C000120ADF80600002051
:100EE000ADF80A0001A94FF0804000F083FA01A993
:100EF0004FF0804000F0D0FA0121880700F04BFA53
:100F000009B000BD000801407047000029B1064A41
:100F1000D2690243044BDA6104E0034AD269824396
:100F2000014BDA61704700000010024029B1064A07
:100F300092690243044B9A6104E0034A9269824336
:100F4000014B9A61704700000010024030B500214B
:100F50000022002400232D4D6D6805F00C0121B105
:100F6000042905D0082923D105E0294D056022E098
:100F7000274D05601FE0254D6D6805F47012234D67
:100F80006D6805F48034022505EB92421CB9214DB1
:100F9000554305600BE01D4D6D6805F400351DB12E
:100FA0001C4D5543056002E0194D5543056002E0B4
:100FB000174D056000BF00BF144D6D6805F0F001CE
:100FC0000909154D6B5C0568DD4045600F4D6D6886
:100FD00005F4E061090A104D6B5C4568DD408560F1
:100FE0000A4D6D6805F46051C90A0B4D6B5C45688C
:100FF000DD40C560054D6D6805F44041890B074D26
:101000006B5CC568B5FBF3F5056130BD00100240AF
:1010100000127A0000093D000000002010000020AE
:1010200000B589B001210220FFF770FF01210820DF
:10103000FFF77CFF18208DF823000120ADF8200079
:1010400003208DF8220008A91748FFF791FB002024
:10105000ADF81A00ADF81600C720ADF8180041F63B
:101060001F40ADF8140000208DF81C0005A90F48A2
:1010700000F072FA01A800F05FFA6020ADF80400F9
:101080000020ADF80C000120ADF806000020ADF8FE
:101090000A0001A9054800F0FFF90121034800F00A
:1010A0007AF909B000BD0000000C014000040040C6
:1010B00010B504462146024800F04AFA10BD00006F
:1010C000000400407047000000B587B0012188048B
:1010D000FFF71CFF01210820FFF728FF18208DF8DB
:1010E0001B004FF48060ADF8180003208DF81A0043
:1010F00006A91F48FFF73CFB48208DF81B004FF462
:101100000060ADF8180006A91948FFF731FB4FF44D
:10111000165002900020ADF814000C20ADF812001B
:101120000020ADF81000ADF80E00ADF80C0002A9DB
:10113000104800F02DFB012240F225510D4800F02F
:1011400001FB4FF4A060FFF701FD27208DF804009C
:1011500001208DF807008DF805008DF8060001A824
:10116000FFF7BCFC0121034800F0A9FA07B000BD5D
:10117000000C01400048004010B5044621460548D7
:1011800000F077FB00BF8021024800F0A4FA00289D
:10119000F9D010BD0048004070B50446002504E0B9
:1011A000605DFFF7E9FF681C85B2605D0028F7D13C
:1011B00070BD10B500F002F810BD00000CB50020A5
:1011C000019000903348006840F480303149086055
:1011D00000BF3048006800F4003000900198401CC7
:1011E0000190009818B90198B0F5A06FF1D1294885
:1011F000006800F4003010B10120009001E00020F0
:1012000000900098012843D12348006840F0100066
:10121000214908600846006820F00300086008467D
:10122000006840F0020008601A48406819494860A8
:101230000846406848600846406840F4806048605E
:101240000846406820F47C1048600846406840F436
:10125000E81048600846006840F08070086000BFF1
:101260000C48006800F000700028F9D00948406878
:1012700020F00300074948600846406840F002003B
:10128000486000BF0348406800F00C000828F9D10E
:101290000CBD00000010024000200240704700001A
:1012A00010B51348006840F0010011490860084675
:1012B0004068104908400E494860084600680E49D9
:1012C00008400B4908600846006820F48020086048
:1012D0000846406820F4FE0048604FF41F00886014
:1012E000FFF767FF4FF000600449086010BD000081
:1012F000001002400000FFF8FFFFF6FE08ED00E0DE
:1013000010B50121064800F055F8012806D100204B
:10131000044908700121024800F03AF810BD0000AD
:1013200000080040170000201FB501210420FFF72E
:10133000EDFD0020ADF80A00ADF8060040F2932064
:10134000ADF8080041F61F40ADF8040000208DF80C
:101350000C0001A90D4800F0FFF8012211460B48CE
:1013600000F039F81E208DF8000001208DF80300F0
:1013700002208DF801008DF802006846FFF7AEFBF1
:101380000021024800F007F81FBD000000080040DF
:10139000CA430282704721B1028842F001020280F2
:1013A00004E002884FF6FE731A400280704701463F
:1013B000888C704730B50246002000230024158A2F
:1013C00005EA0103958905EA010413B10CB1012076
:1013D00000E0002030BD1AB183890B43838102E015
:1013E00083898B438381704701894FF6F8721140DE
:1013F0000181704770B5002400220023058C4FF650
:10140000EF7635400584028C8388048B48F6FF759F
:101410002C404FF6FF452C400D884FF6FF7606EA2C
:1014200005252C434FF6DF752A400D8906EA051580
:101430002A434D8806EA05152A43154DA84202D0D5
:10144000144DA8421DD14FF67F752A404D894FF6A5
:10145000FF7606EA05152A434FF6BF752A408D88A8
:1014600006EA05152A434FF6FF352B404FF2FF756C
:101470002B408D8906EA85052B43CD8906EA850533
:101480002B4383800483CD880587028470BD0000D0
:10149000002C01400034014070B5002400220023DC
:1014A000058C4FF6FF6635400584028C8388848B5B
:1014B0004FF68F752C404FF6FC752C400D882C4351
:1014C0004FF6FF552A400D894FF6FF7606EA0525AF
:1014D0002A434D8806EA05252A43154DA84202D025
:1014E000144DA8421DD14FF2FF752A404D894FF689
:1014F000FF7606EA05252A434FF6FF352A408D88F8
:1015000006EA05252A434EF6FF752B404DF6FF757A
:101510002B408D8906EA05152B43CD8906EA051572
:101520002B4383808483CD888587028470BD00002F
:10153000002C014000340140002101804180818065
:10154000C180018141818181C181704701877047DC
:101550008187704781847047002202881D4B984222
:101560000ED01D4B98420BD0B0F1804F08D01B4BD2
:10157000984205D01A4B984202D01A4B984204D197
:101580004FF68F731A404B881A43174B984207D077
:10159000164B984204D04FF6FF431A40CB881A43AB
:1015A00002808B8883850B8803850A4B98420BD079
:1015B000094B984208D00E4B984205D00D4B9842EB
:1015C00002D00D4B984201D10B7A0386012383820E
:1015D00070470000002C014000340140000400402E
:1015E00000080040000C00400010004000140040C3
:1015F00000400140004401400048014010B540F265
:101600002551224800F074F801283DD11F4800F010
:101610002BF904461E48007858B9402C2ED11D489D
:10162000007858BB01201A49087000201A49087038
:1016300024E01748007801280FD10D2C03D1022097
:10164000134908701AE01549134A12788C5412484D
:101650000078401C1049087010E00D4800780228FE
:101660000CD10A2C0AD100200949087000210B482E
:10167000094A1278815401200649087040F2255128
:10168000024800F00DF800BF10BD00000048004007
:101690001500002014000020160000204C0000203F
:1016A00010B50022002340F66A14A14200D100BF09
:1016B0000A1201249440A3B2DC43048010BD21B17E
:1016C000828942F40052828104E082894DF6FF73E0
:1016D0001A408281704702460020B1F5007F00D198
:1016E00000BF13880B400BB1012000E000207047C1
:1016F00070B50246002400230025002040F66A163B
:10170000B14200D100BFC1F3421501F01F03012611
:1017100006FA03F3012D02D19689334006E0022D2B
:1017200002D1168A334001E0968A33400C1201261A
:1017300006FA04F41688344013B10CB1012000E01D
:10174000002070BDF0B503460024002600250020CF
:1017500040F66A17B94200D100BF1846C1F34214DF
:1017600001F01F06012707FA06F5012C01D10C3004
:1017700004E0022C01D1103000E014301AB10768E7
:101780002F43076002E00768AF430760F0BD000029
:101790002DE9F04786B005460E460024A24600BF5C
:1017A000A1460027B08900B100BF2F462C8A4CF615
:1017B000FF700440F08804432C82AC894EF6F3108D
:1017C0000440B08831890843718908430443AC81DF
:1017D000AC8A4FF6FF400440B0890443AC8201A8B4
:1017E000FFF7B4FB1F48874202D1DDF810A001E0EB
:1017F000DDF80CA0A88900F4004040B10AEBCA0053
:1018000000EB0A1031684900B0FBF1F807E00AEB81
:10181000CA0000EB0A1031688900B0FBF1F86420BF
:10182000B8FBF0F004012009642101FB1089A889AC
:1018300000F4004040B1322000EBC900B0FBF1F0F1
:1018400000F00700044308E0322000EB0910642197
:10185000B0FBF1F000F00F0004432C8106B0BDE8AE
:10186000F08700000038014001468888C0F3080076
:101870007047C1F308028280704700BFFEE7000096
:101880004FF4A060FFF762F9FFF700FAFFF7ACF83A
:10189000FFF7C2F8FFF718FCFFF782F8FFF724F80C
:1018A000FFF7BEFB59E02D480078012825D12CA078
:1018B000FFF772FC2C48FFF76FFC002027490870E7
:1018C0002AA0FFF769FC2848FEF7FCFC032804D097
:1018D000082807D009280FD109E023491F48FEF73F
:1018E000D9FD09E020491D48FEF704FD04E01E492A
:1018F0001A48FEF769FD00BF00BF4FF400511C48B5
:10190000FEF7C1FF04460223224601210846FFF7E5
:1019100069FA4FF480411648FEF7B5FF04460223EA
:10192000224601211846FFF75DFA4FF40061114885
:10193000FEF7A9FF04460223224601210320FFF7F8
:1019400051FA4FF480510B48FEF79DFF04460223E5
:10195000224601210420FFF745FAA4E714000020E5
:101960004F4B2020000000004C0000200A00000027
:10197000000C0140000801400000000000000000D1
:101980000000000000000000000000F8000000005F
:10199000000000333000000000100C06100C0600A0
:1019A000000000000000000040C07840C078400007
:1019B000043F04043F040400007088FC0830000069
:1019C000001820FF211E0000F008F000E0180000C1
:1019D00000211C031E211E0000F00888700000007A
:1019E0001E2123241927211010160E0000000000CC
:1019F0000000000000000000000000E018040200E9
:101A0000000000071820400000020418E000000059
:101A10000040201807000000404080F08040400057
:101A20000202010F01020200000000F000000000AD
:101A30000101011F01010100000000000000000081
:101A400080B07000000000000000000000000000F6
:101A5000000101010101010100000000000000007F
:101A6000003030000000000000000000806018041A
:101A7000006018060100000000E010080810E000F7
:101A8000000F102020100F00001010F800000000C0
:101A90000020203F20200000007008080888700007
:101AA0000030282422213000003008888848300087
:101AB0000018202020110E000000C02010F80000A7
:101AC00000070424243F240000F808888808080040
:101AD0000019212020110E0000E010888818000055
:101AE000000F112020110E0000380808C838080027
:101AF0000000003F000000000070880808887000A7
:101B0000001C222121221C0000E010080810E00027
:101B10000000312222110F00000000C0C0000000B0
:101B200000000030300000000000008000000000D5
:101B300000008060000000000000804020100800CD
:101B40000001020408102000404040404040400096
:101B50000404040404040400000810204080000071
:101B60000020100804020100007048080808F00076
:101B70000000003036010000C030C828E810E00046
:101B80000718272423140B000000C038E0000000D1
:101B9000203C23020227382008F88888887000003B
:101BA000203F202020110E00C0300808080838000F
:101BB000071820202010080008F808080810E00086
:101BC000203F202020100F0008F88888E808100027
:101BD000203F20202320180008F88888E8081000FB
:101BE000203F200003000000C03008080838000033
:101BF00007182020221E020008F808000008F80834
:101C0000203F210101213F20000808F808080000BA
:101C10000020203F2020000000000808F8080800ED
:101C2000C08080807F00000008F888C02818080065
:101C3000203F20012638200008F80800000000009E
:101C4000203F20202020300008F8F800F8F8080095
:101C5000203F003F003F200008F830C00008F8088F
:101C6000203F200007183F00E01008080810E0009F
:101C70000F10202020100F0008F808080808F000B6
:101C8000203F210101010000E01008080810E000D9
:101C90000F18242438504F0008F88888888870006E
:101CA000203F2000030C302000708808080838000E
:101CB0000038202121221C00180808F80808180004
:101CC0000000203F2000000008F808000008F80885
:101CD000001F202020201F000878880000C8380836
:101CE000000007380E010000F80800F80008F800AE
:101CF000033C0700073C0300081868808068180848
:101D000020302C03032C30200838C800C8380800C5
:101D10000000203F2000000010080808C838080014
:101D20002038262120201800000000FE02020200B8
:101D30000000007F40404000000C30C00000000068
:101D4000000000010638C00000020202FE00000090
:101D5000004040407F000000000004020202040036
:101D60000000000000000000000000000000000073
:101D7000808080808080808000020204000000005B
:101D80000000000000000000000080808080000053
:101D90000019242222223F2008F800808000000041
:101DA000003F112020110E00000000808080000004
:101DB000000E112020201100000000808088F80013
:101DC000000E112020103F20000080808080000045
:101DD000001F222222221300008080F088888818A9
:101DE0000020203F202000000000808080808000B4
:101DF000006B94949493600008F800808080000049
:101E0000203F210000203F20008098980000000023
:101E10000020203F20200000000000809898000053
:101E200000C08080807F000008F800008080800073
:101E3000203F24022D302000000808F80000000098
:101E40000020203F20200000808080808080800053
:101E5000203F20003F20003F8080008080800000E5
:101E6000203F210000203F20000080808080000073
:101E7000001F202020201F008080008080000000A4
:101E800080FFA12020110E000000008080808000D3
:101E9000000E112020A0FF808080800080808000C4
:101EA00020203F21200001000000808080808000F1
:101EB0000033242424241900008080E08080000066
:101EC0000000001F202000008080000000808000B3
:101ED000001F202020103F20808080000080808014
:101EE00000010E30080601008080008000808080A4
:101EF0000F300C030C300F000080800080808000C9
:101F00000020312E0E3120008080800000808080F3
:101F100080818E70180601000080808080808000A3
:101F20000021302C2221300000000000807C0202C1
:101F300000000000003F404000000000FF000000E3
:101F400000000000FF0000000002027C8000000092
:101F50000040403F000000000006010102020404AE
:101F600000000000000000004361725F4175746F63
:101F700041766F69640000004361725F476F4261A0
:101F8000636B7761726400004361725F476F466FF5
:101F900072776172640000004361725F4D616E751B
:101FA000616C4D6F646500004361725F4175746FD1
:101FB00057617966696E64696E6700004361725F9C
:101FC00053746F70000000004361725F537461725C
:101FD000747570004361725F5475726E4C656674FF
:101FE000000000004361725F5475726E5269676849
:101FF000740000004175746F41766F69645F4578C5
:10200000697400004D616E75616C4D6F64655F456C
:10201000786974004175746F57617966696E646997
:102020006E675F4578697400482000080000002052
:102030004C00000028010008942000084C000020FB
:10204000C40600004401000800000000010203046F
:102050000102030406070809020406080000000044
:1020600000000000C81F0008BC1F0008981F0008DF
:10207000881F0008781F0008D41F0008E41F00080C
:10208000681F0008A81F000804200008F41F0008AB
:042090001420000810
:04000005080000ED02
:00000001FF
